{
	"contractName": "LOCExchange",
	"abi": [
		{
			"constant": true,
			"inputs": [],
			"name": "minWeiAmount",
			"outputs": [
				{
					"name": "",
					"type": "uint256"
				}
			],
			"payable": false,
			"stateMutability": "view",
			"type": "function"
		},
		{
			"constant": true,
			"inputs": [],
			"name": "rate",
			"outputs": [
				{
					"name": "",
					"type": "uint256"
				}
			],
			"payable": false,
			"stateMutability": "view",
			"type": "function"
		},
		{
			"constant": false,
			"inputs": [],
			"name": "unpause",
			"outputs": [],
			"payable": false,
			"stateMutability": "nonpayable",
			"type": "function"
		},
		{
			"constant": true,
			"inputs": [],
			"name": "LOCOracle",
			"outputs": [
				{
					"name": "",
					"type": "address"
				}
			],
			"payable": false,
			"stateMutability": "view",
			"type": "function"
		},
		{
			"constant": true,
			"inputs": [],
			"name": "paused",
			"outputs": [
				{
					"name": "",
					"type": "bool"
				}
			],
			"payable": false,
			"stateMutability": "view",
			"type": "function"
		},
		{
			"constant": false,
			"inputs": [
				{
					"name": "newOracle",
					"type": "address"
				}
			],
			"name": "setOracle",
			"outputs": [
				{
					"name": "",
					"type": "bool"
				}
			],
			"payable": false,
			"stateMutability": "nonpayable",
			"type": "function"
		},
		{
			"constant": false,
			"inputs": [],
			"name": "destroy",
			"outputs": [],
			"payable": false,
			"stateMutability": "nonpayable",
			"type": "function"
		},
		{
			"constant": false,
			"inputs": [
				{
					"name": "_newImpl",
					"type": "address"
				}
			],
			"name": "upgradeImplementation",
			"outputs": [],
			"payable": false,
			"stateMutability": "nonpayable",
			"type": "function"
		},
		{
			"constant": false,
			"inputs": [],
			"name": "pause",
			"outputs": [],
			"payable": false,
			"stateMutability": "nonpayable",
			"type": "function"
		},
		{
			"constant": true,
			"inputs": [],
			"name": "getOwner",
			"outputs": [
				{
					"name": "",
					"type": "address"
				}
			],
			"payable": false,
			"stateMutability": "view",
			"type": "function"
		},
		{
			"constant": true,
			"inputs": [],
			"name": "owner",
			"outputs": [
				{
					"name": "",
					"type": "address"
				}
			],
			"payable": false,
			"stateMutability": "view",
			"type": "function"
		},
		{
			"constant": true,
			"inputs": [],
			"name": "contractImplementation",
			"outputs": [
				{
					"name": "",
					"type": "address"
				}
			],
			"payable": false,
			"stateMutability": "view",
			"type": "function"
		},
		{
			"constant": true,
			"inputs": [],
			"name": "getImplementation",
			"outputs": [
				{
					"name": "",
					"type": "address"
				}
			],
			"payable": false,
			"stateMutability": "view",
			"type": "function"
		},
		{
			"constant": true,
			"inputs": [],
			"name": "LOCTokenContract",
			"outputs": [
				{
					"name": "",
					"type": "address"
				}
			],
			"payable": false,
			"stateMutability": "view",
			"type": "function"
		},
		{
			"constant": false,
			"inputs": [],
			"name": "init",
			"outputs": [],
			"payable": false,
			"stateMutability": "nonpayable",
			"type": "function"
		},
		{
			"constant": false,
			"inputs": [
				{
					"name": "newOwner",
					"type": "address"
				}
			],
			"name": "transferOwnership",
			"outputs": [],
			"payable": false,
			"stateMutability": "nonpayable",
			"type": "function"
		},
		{
			"constant": false,
			"inputs": [
				{
					"name": "_recipient",
					"type": "address"
				}
			],
			"name": "destroyAndSend",
			"outputs": [],
			"payable": false,
			"stateMutability": "nonpayable",
			"type": "function"
		},
		{
			"inputs": [
				{
					"name": "initialOracle",
					"type": "address"
				},
				{
					"name": "locTokenContractAddress",
					"type": "address"
				}
			],
			"payable": false,
			"stateMutability": "nonpayable",
			"type": "constructor"
		},
		{
			"payable": true,
			"stateMutability": "payable",
			"type": "fallback"
		},
		{
			"anonymous": false,
			"inputs": [
				{
					"indexed": false,
					"name": "locWei",
					"type": "uint256"
				},
				{
					"indexed": false,
					"name": "ethWei",
					"type": "uint256"
				},
				{
					"indexed": false,
					"name": "rate",
					"type": "uint256"
				}
			],
			"name": "LogLocExchanged",
			"type": "event"
		},
		{
			"anonymous": false,
			"inputs": [
				{
					"indexed": false,
					"name": "locWei",
					"type": "uint256"
				}
			],
			"name": "LogLocWithdrawal",
			"type": "event"
		},
		{
			"anonymous": false,
			"inputs": [
				{
					"indexed": false,
					"name": "ethWei",
					"type": "uint256"
				}
			],
			"name": "LogETHWithdrawal",
			"type": "event"
		},
		{
			"anonymous": false,
			"inputs": [
				{
					"indexed": false,
					"name": "oldOracle",
					"type": "address"
				},
				{
					"indexed": false,
					"name": "newOracle",
					"type": "address"
				},
				{
					"indexed": false,
					"name": "changer",
					"type": "address"
				}
			],
			"name": "LOGLOCOracleSet",
			"type": "event"
		},
		{
			"anonymous": false,
			"inputs": [],
			"name": "Pause",
			"type": "event"
		},
		{
			"anonymous": false,
			"inputs": [],
			"name": "Unpause",
			"type": "event"
		},
		{
			"anonymous": false,
			"inputs": [
				{
					"indexed": true,
					"name": "previousOwner",
					"type": "address"
				},
				{
					"indexed": true,
					"name": "newOwner",
					"type": "address"
				}
			],
			"name": "OwnershipTransferred",
			"type": "event"
		},
		{
			"anonymous": false,
			"inputs": [
				{
					"indexed": true,
					"name": "_newImpl",
					"type": "address"
				}
			],
			"name": "UpgradedContract",
			"type": "event"
		},
		{
			"constant": true,
			"inputs": [
				{
					"name": "weiAmount",
					"type": "uint256"
				}
			],
			"name": "weiToLocWei",
			"outputs": [
				{
					"name": "",
					"type": "uint256"
				}
			],
			"payable": false,
			"stateMutability": "view",
			"type": "function"
		},
		{
			"constant": true,
			"inputs": [
				{
					"name": "locWeiAmount",
					"type": "uint256"
				}
			],
			"name": "locWeiToWei",
			"outputs": [
				{
					"name": "",
					"type": "uint256"
				}
			],
			"payable": false,
			"stateMutability": "view",
			"type": "function"
		},
		{
			"constant": false,
			"inputs": [
				{
					"name": "locWei",
					"type": "uint256"
				}
			],
			"name": "exchangeLocWeiToEthWei",
			"outputs": [
				{
					"name": "",
					"type": "uint256"
				}
			],
			"payable": false,
			"stateMutability": "nonpayable",
			"type": "function"
		},
		{
			"constant": false,
			"inputs": [
				{
					"name": "locWeiWithdrawAmount",
					"type": "uint256"
				}
			],
			"name": "withdrawLOC",
			"outputs": [
				{
					"name": "",
					"type": "uint256"
				}
			],
			"payable": false,
			"stateMutability": "nonpayable",
			"type": "function"
		},
		{
			"constant": false,
			"inputs": [
				{
					"name": "weiWithdrawAmount",
					"type": "uint256"
				}
			],
			"name": "withdrawETH",
			"outputs": [
				{
					"name": "",
					"type": "uint256"
				}
			],
			"payable": false,
			"stateMutability": "nonpayable",
			"type": "function"
		},
		{
			"constant": true,
			"inputs": [],
			"name": "getLocBalance",
			"outputs": [
				{
					"name": "",
					"type": "uint256"
				}
			],
			"payable": false,
			"stateMutability": "view",
			"type": "function"
		}
	],
	"bytecode": "0x60606040526002805460a060020a60ff0219169055341561001f57600080fd5b604051604080611133833981016040528080519190602001805160028054600160a060020a03191633600160a060020a03908116919091179091559092508391506000908216151561007057600080fd5b5060038054600160a060020a031916600160a060020a038316908117909155819063c885cc866000604051602001526040518163ffffffff167c0100000000000000000000000000000000000000000000000000000000028152600401602060405180830381600087803b15156100e657600080fd5b6102c65a03f115156100f757600080fd5b50505060405180519050151561010c57600080fd5b505060048054600160a060020a031916600160a060020a039290921691909117905550610ff58061013e6000396000f3006060604052600436106101195763ffffffff60e060020a600035041663218ab80b811461013257806321f222dd146101575780632c4e722e1461016a5780633f4ba83a1461017d5780634fc557cd14610190578063509e004e146101bf5780635c975abb146101d55780637adbf973146101fc57806383197ef01461021b57806383f94db71461022e5780638456cb591461024d578063893d20e8146102605780638da5cb5b146102735780638fdc7c2e146102865780639464d5fd1461029c5780639e72370b146102b2578063aaf10f42146102c5578063b1787609146102d8578063b3feeac3146102ee578063e1c7392a14610301578063f14210a614610314578063f2fde38b1461032a578063f5074f4114610349575b60025460a060020a900460ff161561013057600080fd5b005b341561013d57600080fd5b610145610368565b60405190815260200160405180910390f35b341561016257600080fd5b6101456103fa565b341561017557600080fd5b61014561045c565b341561018857600080fd5b6101306104be565b341561019b57600080fd5b6101a361053d565b604051600160a060020a03909116815260200160405180910390f35b34156101ca57600080fd5b61014560043561054c565b34156101e057600080fd5b6101e86107ad565b604051901515815260200160405180910390f35b341561020757600080fd5b6101e8600160a060020a03600435166107bd565b341561022657600080fd5b610130610905565b341561023957600080fd5b610130600160a060020a036004351661092e565b341561025857600080fd5b6101306109a3565b341561026b57600080fd5b6101a3610a27565b341561027e57600080fd5b6101a3610a36565b341561029157600080fd5b610145600435610a45565b34156102a757600080fd5b610145600435610b55565b34156102bd57600080fd5b6101a3610cc6565b34156102d057600080fd5b6101a3610cd5565b34156102e357600080fd5b610145600435610ce4565b34156102f957600080fd5b6101a3610ddf565b341561030c57600080fd5b610130610dee565b341561031f57600080fd5b610145600435610e2e565b341561033557600080fd5b610130600160a060020a0360043516610ee3565b341561035457600080fd5b610130600160a060020a0360043516610f7e565b60025460009060a060020a900460ff161561038257600080fd5b600454600160a060020a03166370a082313060006040516020015260405160e060020a63ffffffff8416028152600160a060020a039091166004820152602401602060405180830381600087803b15156103db57600080fd5b6102c65a03f115156103ec57600080fd5b505050604051805191505090565b60025460009060a060020a900460ff161561041457600080fd5b600354600160a060020a03166321f222dd6000604051602001526040518163ffffffff1660e060020a028152600401602060405180830381600087803b15156103db57600080fd5b60025460009060a060020a900460ff161561047657600080fd5b600354600160a060020a0316632c4e722e6000604051602001526040518163ffffffff1660e060020a028152600401602060405180830381600087803b15156103db57600080fd5b60025433600160a060020a039081169116146104d957600080fd5b60025460a060020a900460ff1615156104f157600080fd5b6002805474ff0000000000000000000000000000000000000000191690557f7805862f689e2f13df9f062ff482ad3ad112aca9e0847911ed832e158c525b3360405160405180910390a1565b600354600160a060020a031681565b600254600090819060a060020a900460ff161561056857600080fd5b30600160a060020a0316632c4e722e6000604051602001526040518163ffffffff1660e060020a028152600401602060405180830381600087803b15156105ae57600080fd5b6102c65a03f115156105bf57600080fd5b505050604051805184101590506105d557600080fd5b600454600160a060020a03166323b872dd33308660006040516020015260405160e060020a63ffffffff8616028152600160a060020a0393841660048201529190921660248201526044810191909152606401602060405180830381600087803b151561064157600080fd5b6102c65a03f1151561065257600080fd5b50505060405180519050151561066457fe5b30600160a060020a0316638fdc7c2e8460006040516020015260405160e060020a63ffffffff84160281526004810191909152602401602060405180830381600087803b15156106b357600080fd5b6102c65a03f115156106c457600080fd5b5050506040518051915050600160a060020a03331681156108fc0282604051600060405180830381858888f19350505050151561070057600080fd5b7f12bbb09248841a291ce08790742591dbaa310c95ccf518fdc9e1b0683f333a66838230600160a060020a0316632c4e722e6000604051602001526040518163ffffffff1660e060020a028152600401602060405180830381600087803b151561076957600080fd5b6102c65a03f1151561077a57600080fd5b5050506040518051905060405180848152602001838152602001828152602001935050505060405180910390a192915050565b60025460a060020a900460ff1681565b6002546000908190819033600160a060020a039081169116146107df57600080fd5b60025460a060020a900460ff16156107f657600080fd5b600160a060020a038416151561080b57600080fd5b83915081600160a060020a031663c885cc866000604051602001526040518163ffffffff1660e060020a028152600401602060405180830381600087803b151561085457600080fd5b6102c65a03f1151561086557600080fd5b50505060405180519050151561087a57600080fd5b5060038054600160a060020a0385811673ffffffffffffffffffffffffffffffffffffffff19831617909255167fc45544b7ac4a92c3899899340285a02bb5fee150e7b5ff75dbdcba7cea40ae7a818533604051600160a060020a03938416815291831660208301529091166040808301919091526060909101905180910390a15060019392505050565b60025433600160a060020a0390811691161461092057600080fd5b600154600160a060020a0316ff5b60025433600160a060020a0390811691161461094957600080fd5b6000805473ffffffffffffffffffffffffffffffffffffffff1916600160a060020a0383169081179091557fbb0e7ec411133f2e650f59a5c752be1a0f548c2140421e80171b2f9b1ff833a960405160405180910390a250565b60025433600160a060020a039081169116146109be57600080fd5b60025460a060020a900460ff16156109d557600080fd5b6002805474ff0000000000000000000000000000000000000000191660a060020a1790557f6985a02210a168e66602d3235cb6db0e70f92b3ba4d376a33c0f3d9434bff62560405160405180910390a1565b600254600160a060020a031690565b600254600160a060020a031681565b60025460009081908190819060a060020a900460ff1615610a6557600080fd5b30600160a060020a0316632c4e722e6000604051602001526040518163ffffffff1660e060020a028152600401602060405180830381600087803b1515610aab57600080fd5b6102c65a03f11515610abc57600080fd5b5050506040518051935050600160a060020a0330166321f222dd6000604051602001526040518163ffffffff1660e060020a028152600401602060405180830381600087803b1515610b0d57600080fd5b6102c65a03f11515610b1e57600080fd5b5050506040518051905091508285811515610b3557fe5b0490508285811515610b4357fe5b0615610b4d576001015b029392505050565b60025460009060a060020a900460ff1615610b6f57600080fd5b60025433600160a060020a03908116911614610b8a57600080fd5b6004548290600160a060020a03166370a082313060006040516020015260405160e060020a63ffffffff8416028152600160a060020a039091166004820152602401602060405180830381600087803b1515610be557600080fd5b6102c65a03f11515610bf657600080fd5b5050506040518051905010151515610c0d57600080fd5b600454600160a060020a031663a9059cbb338460006040516020015260405160e060020a63ffffffff8516028152600160a060020a0390921660048301526024820152604401602060405180830381600087803b1515610c6c57600080fd5b6102c65a03f11515610c7d57600080fd5b505050604051805190501515610c8f57fe5b7f0252a0fbcdcaf341ee7e342a80efad0972c20350a45a36d5bf6bd7e809af113a8260405190815260200160405180910390a15090565b600054600160a060020a031681565b600054600160a060020a031690565b600254600090819060a060020a900460ff1615610d0057600080fd5b30600160a060020a03166321f222dd6000604051602001526040518163ffffffff1660e060020a028152600401602060405180830381600087803b1515610d4657600080fd5b6102c65a03f11515610d5757600080fd5b5050506040518051905083811515610d6b57fe5b049050610dd88130600160a060020a0316632c4e722e6000604051602001526040518163ffffffff1660e060020a028152600401602060405180830381600087803b1515610db857600080fd5b6102c65a03f11515610dc957600080fd5b50505060405180519050610fa5565b9392505050565b600454600160a060020a031681565b600154600160a060020a031615610e0457600080fd5b6001805473ffffffffffffffffffffffffffffffffffffffff191633600160a060020a0316179055565b60025460009060a060020a900460ff1615610e4857600080fd5b60025433600160a060020a03908116911614610e6357600080fd5b600160a060020a0330163182901015610e7b57600080fd5b600160a060020a03331682156108fc0283604051600060405180830381858888f193505050501515610eac57600080fd5b7f1f3aa65e09102ce65e7cfa3838f7bc642cfc2882fc576a5bf6c5b4488464d8858260405190815260200160405180910390a15090565b60025433600160a060020a03908116911614610efe57600080fd5b600160a060020a0381161515610f1357600080fd5b600254600160a060020a0380831691167f8be0079c531659141344cd1fd0a4f28419497f9722a3daafe3b4186f6b6457e060405160405180910390a36002805473ffffffffffffffffffffffffffffffffffffffff1916600160a060020a0392909216919091179055565b60025433600160a060020a03908116911614610f9957600080fd5b80600160a060020a0316ff5b6000828202831580610fc15750828482811515610fbe57fe5b04145b1515610dd857fe00a165627a7a7230582006ef9623e9ea253b569670b55faf416c04faaa60175094b09510524f0c78a8bc0029",
	"source": "pragma solidity ^0.4.17;\n\nimport './../Lifecycle/Ownable.sol';\nimport './../Lifecycle/PausableBasic.sol';\nimport './Oraclized.sol';\nimport './../Lifecycle/Destructible.sol';\nimport './../tokens/ERC20.sol';\nimport './../Math/SafeMath.sol';\n\n/**\n * @title LOCExchange\n * @dev Contract for exchanging LOC to ETH\n * Allows for exchanging LOCwei to wei\n */\ncontract LOCExchange is Ownable, PausableBasic, Destructible, Oraclized {\n    ERC20 public LOCTokenContract;\n\n    event LogLocExchanged(uint locWei, uint ethWei, uint rate);\n    event LogLocWithdrawal(uint locWei);\n    event LogETHWithdrawal(uint ethWei);\n\n    function LOCExchange(address initialOracle, address locTokenContractAddress) Oraclized(initialOracle) public {\n        LOCTokenContract = ERC20(locTokenContractAddress);\n    }\n\n    /**\n     * @dev Function used to find out how much Loc must be approved/allowed to get certain amount of wei\n     */\n    function weiToLocWei(uint weiAmount) constant public whenNotPaused returns(uint) {\n        uint convertedWeiAmount = weiAmount / this.minWeiAmount();\n        return SafeMath.mul(convertedWeiAmount, this.rate());\n    } \n\n    /**\n     * @dev Function used to find out how much Wei must be send by given locWei\n     */\n    function locWeiToWei(uint locWeiAmount) constant public whenNotPaused returns(uint) {\n        uint rate = this.rate();\n        uint minWeiAmount = this.minWeiAmount();\n\n        uint weiAmount = locWeiAmount / rate;\n        if ((locWeiAmount % rate) != 0) {\n            weiAmount++;\n        } \n\n        weiAmount *= minWeiAmount;\n        return weiAmount;\n    } \n\n    /**\n     * @dev Transfer to this contract certain amount of LOCWei and send back ETHWei to the message sender\n     */\n    function exchangeLocWeiToEthWei(uint locWei) public whenNotPaused returns(uint) {\n        require(locWei >= this.rate());\n\n        assert(LOCTokenContract.transferFrom(msg.sender, this, locWei));\n        uint ethWeiToSend = this.locWeiToWei(locWei);\n        msg.sender.transfer(ethWeiToSend);\n\n        LogLocExchanged(locWei, ethWeiToSend, this.rate());\n\n        return ethWeiToSend;\n    }\n\n    /**\n     * @dev Send given amount of LOC from this contract to the owner\n     */\n    function withdrawLOC(uint locWeiWithdrawAmount) public whenNotPaused onlyOwner returns(uint) {\n        require(LOCTokenContract.balanceOf(this) >= locWeiWithdrawAmount);\n\n        assert(LOCTokenContract.transfer(msg.sender, locWeiWithdrawAmount));\n        LogLocWithdrawal(locWeiWithdrawAmount);\n        return locWeiWithdrawAmount;\n    }\n\n    /**\n     * @dev Sends given amount of ETH from this contract to the owner\n     */\n    function withdrawETH(uint weiWithdrawAmount) public whenNotPaused onlyOwner returns(uint) {\n        require(this.balance >= weiWithdrawAmount);\n        msg.sender.transfer(weiWithdrawAmount);\n\n        LogETHWithdrawal(weiWithdrawAmount);\n\n        return weiWithdrawAmount;\n    }\n\n    /**\n     * @dev Get the loc balance from the LOC token contract\n     */\n    function getLocBalance() constant public whenNotPaused returns(uint) {\n       return LOCTokenContract.balanceOf(this);\n    }\n\n    /**\n     * @dev Receives ether\n     */\n    function () payable public whenNotPaused {\n    }\n}",
	"sourcePath": "/Users/martingrigorov/Work/Projects/LockChain/DApp/contracts/Exchange/LOCExchange.sol",
	"compiler": {
		"name": "solc",
		"version": "0.4.19+commit.c4cbbb05.Emscripten.clang"
	},
	"schemaVersion": "1.0.1",
	"updatedAt": "2018-03-26T11:32:33.648Z"
}