{
  "contractName": "SimpleReservationSingleWithdrawer",
  "abi": [
    {
      "constant": false,
      "inputs": [],
      "name": "renounceOwnership",
      "outputs": [],
      "payable": false,
      "stateMutability": "nonpayable",
      "type": "function"
    },
    {
      "constant": true,
      "inputs": [],
      "name": "owner",
      "outputs": [
        {
          "name": "",
          "type": "address"
        }
      ],
      "payable": false,
      "stateMutability": "view",
      "type": "function"
    },
    {
      "constant": true,
      "inputs": [
        {
          "name": "",
          "type": "uint256"
        }
      ],
      "name": "reservationsWithdrawMap",
      "outputs": [
        {
          "name": "",
          "type": "uint256"
        }
      ],
      "payable": false,
      "stateMutability": "view",
      "type": "function"
    },
    {
      "constant": true,
      "inputs": [],
      "name": "LOCTokenContract",
      "outputs": [
        {
          "name": "",
          "type": "address"
        }
      ],
      "payable": false,
      "stateMutability": "view",
      "type": "function"
    },
    {
      "constant": true,
      "inputs": [],
      "name": "withdrawDestinationWalletAddress",
      "outputs": [
        {
          "name": "",
          "type": "address"
        }
      ],
      "payable": false,
      "stateMutability": "view",
      "type": "function"
    },
    {
      "constant": true,
      "inputs": [],
      "name": "withdrawerAddress",
      "outputs": [
        {
          "name": "",
          "type": "address"
        }
      ],
      "payable": false,
      "stateMutability": "view",
      "type": "function"
    },
    {
      "constant": false,
      "inputs": [
        {
          "name": "_newOwner",
          "type": "address"
        }
      ],
      "name": "transferOwnership",
      "outputs": [],
      "payable": false,
      "stateMutability": "nonpayable",
      "type": "function"
    },
    {
      "inputs": [
        {
          "name": "_locTokenContractAddress",
          "type": "address"
        },
        {
          "name": "_withdrawerAddress",
          "type": "address"
        },
        {
          "name": "_withdrawDestinationWalletAddress",
          "type": "address"
        }
      ],
      "payable": false,
      "stateMutability": "nonpayable",
      "type": "constructor"
    },
    {
      "anonymous": false,
      "inputs": [
        {
          "indexed": true,
          "name": "_customerAddress",
          "type": "address"
        },
        {
          "indexed": false,
          "name": "_reservationCheckOutDate",
          "type": "uint256"
        },
        {
          "indexed": false,
          "name": "_reservationCostLOC",
          "type": "uint256"
        }
      ],
      "name": "LogCreateReservation",
      "type": "event"
    },
    {
      "anonymous": false,
      "inputs": [
        {
          "indexed": true,
          "name": "withdrawer",
          "type": "address"
        },
        {
          "indexed": false,
          "name": "withdrawedAmount",
          "type": "uint256"
        }
      ],
      "name": "LogWithdrawal",
      "type": "event"
    },
    {
      "anonymous": false,
      "inputs": [
        {
          "indexed": true,
          "name": "previousOwner",
          "type": "address"
        }
      ],
      "name": "OwnershipRenounced",
      "type": "event"
    },
    {
      "anonymous": false,
      "inputs": [
        {
          "indexed": true,
          "name": "previousOwner",
          "type": "address"
        },
        {
          "indexed": true,
          "name": "newOwner",
          "type": "address"
        }
      ],
      "name": "OwnershipTransferred",
      "type": "event"
    },
    {
      "constant": false,
      "inputs": [
        {
          "name": "locTokenContractAddress",
          "type": "address"
        }
      ],
      "name": "setLOCTokenContractAddress",
      "outputs": [],
      "payable": false,
      "stateMutability": "nonpayable",
      "type": "function"
    },
    {
      "constant": false,
      "inputs": [
        {
          "name": "_withdrawerAddress",
          "type": "address"
        }
      ],
      "name": "setWithdrawerAddress",
      "outputs": [],
      "payable": false,
      "stateMutability": "nonpayable",
      "type": "function"
    },
    {
      "constant": false,
      "inputs": [
        {
          "name": "_withdrawDestinationWalletAddress",
          "type": "address"
        }
      ],
      "name": "setWithdrawDestinationWalletAddress",
      "outputs": [],
      "payable": false,
      "stateMutability": "nonpayable",
      "type": "function"
    },
    {
      "constant": true,
      "inputs": [
        {
          "name": "_dateToConvert",
          "type": "uint256"
        }
      ],
      "name": "formatTimestampToDaysOnly",
      "outputs": [
        {
          "name": "_convertedDate",
          "type": "uint256"
        }
      ],
      "payable": false,
      "stateMutability": "view",
      "type": "function"
    },
    {
      "constant": false,
      "inputs": [
        {
          "name": "_reservationCostLOC",
          "type": "uint256"
        },
        {
          "name": "_reservationCheckOutDate",
          "type": "uint256"
        }
      ],
      "name": "createReservation",
      "outputs": [
        {
          "name": "success",
          "type": "bool"
        }
      ],
      "payable": false,
      "stateMutability": "nonpayable",
      "type": "function"
    },
    {
      "constant": false,
      "inputs": [
        {
          "name": "_dateForWithdraw",
          "type": "uint256"
        }
      ],
      "name": "withdrawReservation",
      "outputs": [
        {
          "name": "success",
          "type": "bool"
        }
      ],
      "payable": false,
      "stateMutability": "nonpayable",
      "type": "function"
    },
    {
      "constant": false,
      "inputs": [
        {
          "name": "_dateForWithdraw",
          "type": "uint256"
        }
      ],
      "name": "withdrawReservationWithLargerTimestamp",
      "outputs": [
        {
          "name": "success",
          "type": "bool"
        }
      ],
      "payable": false,
      "stateMutability": "nonpayable",
      "type": "function"
    }
  ],
  "bytecode": "0x608060405234801561001057600080fd5b5060405160608061097283398101604090815281516020830151919092015160008054600160a060020a03338116600160a060020a031992831617909255600480549583169582169590951790945560018054938216938516939093179092556002805492909116919092161790556108e48061008e6000396000f3006080604052600436106100cf5763ffffffff7c01000000000000000000000000000000000000000000000000000000006000350416630bbfa1ba81146100d4578063715018a6146101005780638da5cb5b1461011757806392cd8306146101485780639b9b724914610160578063b34fe5a514610181578063b3feeac3146101ab578063b8ce65d3146101c0578063bc09d387146101e1578063bee9d69a146101f6578063ddc6e98214610211578063df708a3714610232578063f03af08314610247578063f2fde38b1461025f575b600080fd5b3480156100e057600080fd5b506100ec600435610280565b604080519115158252519081900360200190f35b34801561010c57600080fd5b506101156103ce565b005b34801561012357600080fd5b5061012c61043e565b60408051600160a060020a039092168252519081900360200190f35b34801561015457600080fd5b506100ec60043561044d565b34801561016c57600080fd5b50610115600160a060020a036004351661058d565b34801561018d57600080fd5b506101996004356105d7565b60408051918252519081900360200190f35b3480156101b757600080fd5b5061012c6105e9565b3480156101cc57600080fd5b50610115600160a060020a03600435166105f8565b3480156101ed57600080fd5b5061012c610642565b34801561020257600080fd5b506100ec600435602435610651565b34801561021d57600080fd5b50610115600160a060020a036004351661079f565b34801561023e57600080fd5b5061012c6107e9565b34801561025357600080fd5b506101996004356107f8565b34801561026b57600080fd5b50610115600160a060020a0360043516610801565b6001546000908190819033600160a060020a039081169116146102a257600080fd5b6102ab426107f8565b9150600084116102ba57600080fd5b8382116102c657600080fd5b5060008381526003602090815260408083208054908490556004805460025484517fa9059cbb000000000000000000000000000000000000000000000000000000008152600160a060020a0391821693810193909352602483018490529351929593169363a9059cbb9360448084019492938390030190829087803b15801561034e57600080fd5b505af1158015610362573d6000803e3d6000fd5b505050506040513d602081101561037857600080fd5b5051151561038257fe5b600254604080518381529051600160a060020a03909216917fb4214c8c54fc7442f36d3682f59aebaf09358a4431835b30efb29d52cf9e1e919181900360200190a25060019392505050565b60005433600160a060020a039081169116146103e957600080fd5b60008054604051600160a060020a03909116917ff8df31144d9c2f0f6b59d69b8b98abd5459d07f2742c4df920b25aae33c6482091a26000805473ffffffffffffffffffffffffffffffffffffffff19169055565b600054600160a060020a031681565b600154600090819033600160a060020a0390811691161461046d57600080fd5b6000831161047a57600080fd5b42831061048657600080fd5b5060008281526003602090815260408083208054908490556004805460025484517fa9059cbb000000000000000000000000000000000000000000000000000000008152600160a060020a0391821693810193909352602483018490529351929593169363a9059cbb9360448084019492938390030190829087803b15801561050e57600080fd5b505af1158015610522573d6000803e3d6000fd5b505050506040513d602081101561053857600080fd5b5051151561054257fe5b600254604080518381529051600160a060020a03909216917fb4214c8c54fc7442f36d3682f59aebaf09358a4431835b30efb29d52cf9e1e919181900360200190a250600192915050565b60005433600160a060020a039081169116146105a857600080fd5b6004805473ffffffffffffffffffffffffffffffffffffffff1916600160a060020a0392909216919091179055565b60036020526000908152604090205481565b600454600160a060020a031681565b60005433600160a060020a0390811691161461061357600080fd5b6002805473ffffffffffffffffffffffffffffffffffffffff1916600160a060020a0392909216919091179055565b600254600160a060020a031681565b60008080841161066057600080fd5b610669426107f8565b905082811061067757600080fd5b600083815260036020526040902054610696908563ffffffff61082816565b6000848152600360209081526040808320939093556004805484517f23b872dd000000000000000000000000000000000000000000000000000000008152600160a060020a03338116938201939093523083166024820152604481018a905294519116936323b872dd9360648083019493928390030190829087803b15801561071e57600080fd5b505af1158015610732573d6000803e3d6000fd5b505050506040513d602081101561074857600080fd5b5051151561075257fe5b60408051848152602081018690528151600160a060020a033316927f4f28e91d6ed1f91db2c9ffb49054b5b880ce891ce84e161b445d3bc18339abc1928290030190a25060019392505050565b60005433600160a060020a039081169116146107ba57600080fd5b6001805473ffffffffffffffffffffffffffffffffffffffff1916600160a060020a0392909216919091179055565b600154600160a060020a031681565b62015180900490565b60005433600160a060020a0390811691161461081c57600080fd5b6108258161083b565b50565b8181018281101561083557fe5b92915050565b600160a060020a038116151561085057600080fd5b60008054604051600160a060020a03808516939216917f8be0079c531659141344cd1fd0a4f28419497f9722a3daafe3b4186f6b6457e091a36000805473ffffffffffffffffffffffffffffffffffffffff1916600160a060020a03929092169190911790555600a165627a7a723058207d8936e9b28d164b2dc832438d79afb6ed6d89537679a6c872ad89bdb64fcafb0029",
  "source": "pragma solidity ^0.4.23;\nimport \"openzeppelin-solidity/contracts/ownership/Ownable.sol\";\nimport \"openzeppelin-solidity/contracts/token/ERC20/ERC20.sol\";\nimport 'openzeppelin-solidity/contracts/math/SafeMath.sol';\n\ncontract SimpleReservationSingleWithdrawer is Ownable {\n\tusing SafeMath for uint256;\n\n\taddress public withdrawerAddress;\n\taddress public withdrawDestinationWalletAddress;\n\n\t//Here we are storing a mapping betwеen the reservation checkout dates and sum of all reservation costs for this day.\n\tmapping (uint => uint256) public reservationsWithdrawMap;\n\tERC20 public LOCTokenContract;\n\n\tevent LogCreateReservation(address indexed _customerAddress, uint _reservationCheckOutDate, uint _reservationCostLOC);\n\tevent LogWithdrawal(address indexed withdrawer, uint256 withdrawedAmount);\n\n\tconstructor(address _locTokenContractAddress, address _withdrawerAddress, address _withdrawDestinationWalletAddress) public {\n\t\tLOCTokenContract = ERC20(_locTokenContractAddress);\n\t\twithdrawerAddress = _withdrawerAddress;\n\t\twithdrawDestinationWalletAddress = _withdrawDestinationWalletAddress;\n\t}\n\n\tmodifier onlyWithdrawer(){\n\t\trequire(withdrawerAddress == msg.sender);\n\t\t_;\n\t}\n\n\tfunction setLOCTokenContractAddress(address locTokenContractAddress) public onlyOwner {\n\t\tLOCTokenContract = ERC20(locTokenContractAddress);\n\t}\n\n\tfunction setWithdrawerAddress(address _withdrawerAddress) public onlyOwner {\n\t\twithdrawerAddress = _withdrawerAddress;\n\t}\n\n\tfunction setWithdrawDestinationWalletAddress(address _withdrawDestinationWalletAddress) public onlyOwner {\n\t\twithdrawDestinationWalletAddress = _withdrawDestinationWalletAddress;\n\t}\n\n\tfunction formatTimestampToDaysOnly(uint _dateToConvert) public view returns (uint _convertedDate) {\n\t\treturn _dateToConvert / (1 days );\n\t}\n\n\tfunction createReservation(\n\t\tuint256 _reservationCostLOC,\n\t\tuint _reservationCheckOutDate\n\t) public returns(bool success) {\n\t\trequire(_reservationCostLOC > 0);\n\t\tuint nowInDays = formatTimestampToDaysOnly(now);\n\t\trequire(nowInDays < _reservationCheckOutDate);\n\n\t\treservationsWithdrawMap[_reservationCheckOutDate] = reservationsWithdrawMap[_reservationCheckOutDate].add(_reservationCostLOC);\n\n\t\tassert(LOCTokenContract.transferFrom(msg.sender, this, _reservationCostLOC));\n\t\temit LogCreateReservation(msg.sender, _reservationCheckOutDate, _reservationCostLOC);\n\t\treturn true;\n\t}\n\n\tfunction withdrawReservation(uint _dateForWithdraw) onlyWithdrawer() public returns(bool success) {\n\t\tuint nowInDays = formatTimestampToDaysOnly(now);\n\t\trequire(_dateForWithdraw > 0);\n\t\trequire(nowInDays > _dateForWithdraw);\n\n\t\tuint256 amountToWithdraw = reservationsWithdrawMap[_dateForWithdraw];\n\t\treservationsWithdrawMap[_dateForWithdraw] = 0;\n\n\t\tassert(LOCTokenContract.transfer(withdrawDestinationWalletAddress, amountToWithdraw));\n\t\temit LogWithdrawal(withdrawDestinationWalletAddress, amountToWithdraw);\n\t\treturn true;\n\t}\n\n\tfunction withdrawReservationWithLargerTimestamp(uint _dateForWithdraw) onlyWithdrawer() public returns (bool success) {\n\t\trequire(_dateForWithdraw > 0);\n\t\trequire(now > _dateForWithdraw);\n\n\t\tuint256 amountToWithdraw = reservationsWithdrawMap[_dateForWithdraw];\n\t\treservationsWithdrawMap[_dateForWithdraw] = 0;\n\n\t\tassert(LOCTokenContract.transfer(withdrawDestinationWalletAddress, amountToWithdraw));\n\t\temit LogWithdrawal(withdrawDestinationWalletAddress, amountToWithdraw);\n\t\treturn true;\n\t}\n}\t\n",
  "sourcePath": "/Users/martingrigorov/Work/Projects/LockChain/DApp/contracts/SimpleReservations/SimpleReservationSingleWithdrawer.sol",
  "compiler": {
    "name": "solc",
    "version": "0.4.23+commit.124ca40d.Emscripten.clang"
  },
  "schemaVersion": "2.0.0",
  "updatedAt": "2018-07-02T10:52:58.687Z"
}