{
  "contractName": "SimpleReservationMultipleWithdrawers",
  "abi": [
    {
      "constant": false,
      "inputs": [],
      "name": "renounceOwnership",
      "outputs": [],
      "payable": false,
      "stateMutability": "nonpayable",
      "type": "function"
    },
    {
      "constant": true,
      "inputs": [],
      "name": "owner",
      "outputs": [
        {
          "name": "",
          "type": "address"
        }
      ],
      "payable": false,
      "stateMutability": "view",
      "type": "function"
    },
    {
      "constant": true,
      "inputs": [
        {
          "name": "",
          "type": "bytes32"
        }
      ],
      "name": "reservations",
      "outputs": [
        {
          "name": "recipientAddress",
          "type": "address"
        },
        {
          "name": "reservationCostLOC",
          "type": "uint256"
        },
        {
          "name": "dateForWithdraw",
          "type": "uint256"
        }
      ],
      "payable": false,
      "stateMutability": "view",
      "type": "function"
    },
    {
      "constant": true,
      "inputs": [],
      "name": "LOCTokenContract",
      "outputs": [
        {
          "name": "",
          "type": "address"
        }
      ],
      "payable": false,
      "stateMutability": "view",
      "type": "function"
    },
    {
      "constant": true,
      "inputs": [],
      "name": "maxAllowedWithdrawCyclesCount",
      "outputs": [
        {
          "name": "",
          "type": "uint256"
        }
      ],
      "payable": false,
      "stateMutability": "view",
      "type": "function"
    },
    {
      "constant": false,
      "inputs": [
        {
          "name": "_newOwner",
          "type": "address"
        }
      ],
      "name": "transferOwnership",
      "outputs": [],
      "payable": false,
      "stateMutability": "nonpayable",
      "type": "function"
    },
    {
      "inputs": [
        {
          "name": "_locTokenContractAddress",
          "type": "address"
        },
        {
          "name": "_maxAllowedCyclesCount",
          "type": "uint256"
        }
      ],
      "payable": false,
      "stateMutability": "nonpayable",
      "type": "constructor"
    },
    {
      "anonymous": false,
      "inputs": [
        {
          "indexed": true,
          "name": "_reservationId",
          "type": "bytes32"
        },
        {
          "indexed": true,
          "name": "_customerAddress",
          "type": "address"
        },
        {
          "indexed": true,
          "name": "_recipientAddress",
          "type": "address"
        },
        {
          "indexed": false,
          "name": "_reservationEndDate",
          "type": "uint256"
        },
        {
          "indexed": false,
          "name": "_reservationCostLOC",
          "type": "uint256"
        }
      ],
      "name": "LogCreateReservation",
      "type": "event"
    },
    {
      "anonymous": false,
      "inputs": [
        {
          "indexed": false,
          "name": "_withdrawedAmount",
          "type": "uint256"
        },
        {
          "indexed": true,
          "name": "_withdrawerAddress",
          "type": "address"
        }
      ],
      "name": "LogWithdrawal",
      "type": "event"
    },
    {
      "anonymous": false,
      "inputs": [
        {
          "indexed": true,
          "name": "previousOwner",
          "type": "address"
        }
      ],
      "name": "OwnershipRenounced",
      "type": "event"
    },
    {
      "anonymous": false,
      "inputs": [
        {
          "indexed": true,
          "name": "previousOwner",
          "type": "address"
        },
        {
          "indexed": true,
          "name": "newOwner",
          "type": "address"
        }
      ],
      "name": "OwnershipTransferred",
      "type": "event"
    },
    {
      "constant": false,
      "inputs": [
        {
          "name": "_locTokenContractAddress",
          "type": "address"
        }
      ],
      "name": "setLOCTokenContractAddress",
      "outputs": [],
      "payable": false,
      "stateMutability": "nonpayable",
      "type": "function"
    },
    {
      "constant": false,
      "inputs": [
        {
          "name": "_maxAllowedWithdrawCyclesCount",
          "type": "uint256"
        }
      ],
      "name": "setmaxAllowedWithdrawCyclesCount",
      "outputs": [],
      "payable": false,
      "stateMutability": "nonpayable",
      "type": "function"
    },
    {
      "constant": true,
      "inputs": [
        {
          "name": "_reservationIds",
          "type": "bytes32[]"
        }
      ],
      "name": "validateWithdraw",
      "outputs": [
        {
          "name": "success",
          "type": "bool"
        }
      ],
      "payable": false,
      "stateMutability": "view",
      "type": "function"
    },
    {
      "constant": false,
      "inputs": [
        {
          "name": "_reservationId",
          "type": "bytes32"
        },
        {
          "name": "_reservationCostLOC",
          "type": "uint256"
        },
        {
          "name": "_startDateForWithdrawal",
          "type": "uint256"
        },
        {
          "name": "_recipientAddress",
          "type": "address"
        }
      ],
      "name": "createReservation",
      "outputs": [
        {
          "name": "success",
          "type": "bool"
        }
      ],
      "payable": false,
      "stateMutability": "nonpayable",
      "type": "function"
    },
    {
      "constant": false,
      "inputs": [
        {
          "name": "_reservationIds",
          "type": "bytes32[]"
        }
      ],
      "name": "withdraw",
      "outputs": [
        {
          "name": "success",
          "type": "bool"
        }
      ],
      "payable": false,
      "stateMutability": "nonpayable",
      "type": "function"
    }
  ],
  "bytecode": "0x608060405234801561001057600080fd5b5060405160408061090f83398101604052805160209091015160008054600160a060020a03338116600160a060020a03199283161790925560038054929094169116179091556001556108a7806100686000396000f3006080604052600436106100ae5763ffffffff7c01000000000000000000000000000000000000000000000000000000006000350416635068265081146100b3578063715018a61461011c5780638da5cb5b146101335780639b9b724914610164578063a1b416f914610185578063b3feeac3146101c5578063de2edd6a146101da578063e8d3d17b14610204578063edb87b361461021c578063f2fde38b14610243578063fe2b392414610264575b600080fd5b3480156100bf57600080fd5b5060408051602060048035808201358381028086018501909652808552610108953695939460249493850192918291850190849080828437509497506102b99650505050505050565b604080519115158252519081900360200190f35b34801561012857600080fd5b50610131610321565b005b34801561013f57600080fd5b50610148610391565b60408051600160a060020a039092168252519081900360200190f35b34801561017057600080fd5b50610131600160a060020a03600435166103a0565b34801561019157600080fd5b5061019d6004356103ea565b60408051600160a060020a039094168452602084019290925282820152519081900360600190f35b3480156101d157600080fd5b50610148610416565b3480156101e657600080fd5b50610108600435602435604435600160a060020a0360643516610425565b34801561021057600080fd5b506101316004356105c5565b34801561022857600080fd5b506102316105e5565b60408051918252519081900360200190f35b34801561024f57600080fd5b50610131600160a060020a03600435166105eb565b34801561027057600080fd5b5060408051602060048035808201358381028086018501909652808552610108953695939460249493850192918291850190849080828437509497506106129650505050505050565b600080826001548151111515156102cf57600080fd5b83516000106102dd57600080fd5b600091505b83518210156103175761030b84838151811015156102fc57fe5b9060200190602002015161079e565b506001909101906102e2565b5060019392505050565b60005433600160a060020a0390811691161461033c57600080fd5b60008054604051600160a060020a03909116917ff8df31144d9c2f0f6b59d69b8b98abd5459d07f2742c4df920b25aae33c6482091a26000805473ffffffffffffffffffffffffffffffffffffffff19169055565b600054600160a060020a031681565b60005433600160a060020a039081169116146103bb57600080fd5b6003805473ffffffffffffffffffffffffffffffffffffffff1916600160a060020a0392909216919091179055565b6002602081905260009182526040909120805460018201549190920154600160a060020a039092169183565b600354600160a060020a031681565b6000848152600260205260408120548590600160a060020a03161561044957600080fd5b6000851161045657600080fd5b42841161046257600080fd5b60408051606081018252600160a060020a038581168252602080830189815283850189815260008c815260028085528782209651875473ffffffffffffffffffffffffffffffffffffffff1916908716178755925160018701559051949091019390935560035484517f23b872dd00000000000000000000000000000000000000000000000000000000815233841660048201523084166024820152604481018b905294519216936323b872dd93606480830194928390030190829087803b15801561052d57600080fd5b505af1158015610541573d6000803e3d6000fd5b505050506040513d602081101561055757600080fd5b5051151561056157fe5b82600160a060020a031633600160a060020a031687600019167fbfdcb244c63c7f97edf0d080fd642c9768de7e994163221f7db7574d1aaf50048789604051808381526020018281526020019250505060405180910390a450600195945050505050565b60005433600160a060020a039081169116146105e057600080fd5b600155565b60015481565b60005433600160a060020a0390811691161461060657600080fd5b61060f816107eb565b50565b60008060008060008560015481511115151561062d57600080fd5b865160001061063b57600080fd5b600093505b86518410156106af57868481518110151561065757fe5b6020908102909101810151600081815260029092526040909120909350915061067f8361079e565b50600182015461069690869063ffffffff61086816565b9450600082600101819055508380600101945050610640565b600354604080517fa9059cbb000000000000000000000000000000000000000000000000000000008152600160a060020a033381166004830152602482018990529151919092169163a9059cbb9160448083019260209291908290030181600087803b15801561071e57600080fd5b505af1158015610732573d6000803e3d6000fd5b505050506040513d602081101561074857600080fd5b5051151561075257fe5b604080518681529051600160a060020a033316917fef232fa02b2633bddc860db9d0d9b1c57fd83b506398b134edaebb6783d41e94919081900360200190a25060019695505050505050565b60008181526002602052604081205433600160a060020a039081169116146107c557600080fd5b6000828152600260208190526040909120015442116107e357600080fd5b506001919050565b600160a060020a038116151561080057600080fd5b60008054604051600160a060020a03808516939216917f8be0079c531659141344cd1fd0a4f28419497f9722a3daafe3b4186f6b6457e091a36000805473ffffffffffffffffffffffffffffffffffffffff1916600160a060020a0392909216919091179055565b8181018281101561087557fe5b929150505600a165627a7a72305820e2cd66c6b18286c30f8c58fd1a6afdbd73a7a08b2babd96427ed52760d2a48b20029",
  "source": "pragma solidity ^0.4.23;\nimport \"openzeppelin-solidity/contracts/ownership/Ownable.sol\";\nimport \"openzeppelin-solidity/contracts/token/ERC20/ERC20.sol\";\nimport 'openzeppelin-solidity/contracts/math/SafeMath.sol';\n\ncontract SimpleReservationMultipleWithdrawers is Ownable {\n\tusing SafeMath for uint256;\n\n\tuint public maxAllowedWithdrawCyclesCount;\n\n\tstruct ReservationStruct {\n\t\taddress recipientAddress;\n\t\tuint256 reservationCostLOC;\n\t\tuint dateForWithdraw;\n\t}\n\n\tmapping (bytes32 => ReservationStruct) public reservations;\n\tERC20 public LOCTokenContract;\n\n\tevent LogCreateReservation(bytes32 indexed _reservationId, address indexed _customerAddress, address indexed _recipientAddress, uint _reservationEndDate, uint _reservationCostLOC);\n\tevent LogWithdrawal(uint256 _withdrawedAmount, address indexed _withdrawerAddress);\n\n\tconstructor(address _locTokenContractAddress, uint _maxAllowedCyclesCount) public {\n\t\tLOCTokenContract = ERC20(_locTokenContractAddress);\n\t\tmaxAllowedWithdrawCyclesCount = _maxAllowedCyclesCount;\n\t}\n\n\tmodifier onlyNotExisting(bytes32 _reservationId) {\n\t\trequire(reservations[_reservationId].recipientAddress == address(0));\n\t\t_;\n\t}\n\n\tmodifier validateCountCycle(bytes32[] _reservationsArray) {\n\t\trequire(_reservationsArray.length <= maxAllowedWithdrawCyclesCount);\n\t\t_;\n\t}\n\n\tfunction setLOCTokenContractAddress(address _locTokenContractAddress) public onlyOwner {\n\t\tLOCTokenContract = ERC20(_locTokenContractAddress);\n\t}\n\n\tfunction validateWithdrawOrThrow(bytes32 _reservationId) internal view returns(bool success) {\n\t\trequire(reservations[_reservationId].recipientAddress == msg.sender);\n\t\trequire(now > reservations[_reservationId].dateForWithdraw);\n\t\treturn true;\n\t}\n\n\tfunction setmaxAllowedWithdrawCyclesCount(uint _maxAllowedWithdrawCyclesCount) onlyOwner {\n\t\tmaxAllowedWithdrawCyclesCount = _maxAllowedWithdrawCyclesCount;\n\t}\n\n\tfunction validateWithdraw(bytes32[] _reservationIds) public validateCountCycle(_reservationIds) view returns(bool success) {\n\t\trequire(_reservationIds.length > 0);\n\n\t\tfor (uint i = 0 ; i < _reservationIds.length ; i++) {\n\t\t\tvalidateWithdrawOrThrow(_reservationIds[i]);\t\n\t\t}\n\t\treturn true;\n\t}\n\n\tfunction createReservation(\n\t\tbytes32 _reservationId,\n\t\tuint256 _reservationCostLOC,\n\t\tuint _startDateForWithdrawal,\n\t\taddress _recipientAddress\n\t) public onlyNotExisting(_reservationId) returns(bool success) {\n\t\trequire(_reservationCostLOC > 0);\n\t\trequire(now < _startDateForWithdrawal);\n\n\t\treservations[_reservationId] = ReservationStruct({\n\t\t\trecipientAddress: _recipientAddress,\n\t\t\treservationCostLOC: _reservationCostLOC,\n\t\t\tdateForWithdraw: _startDateForWithdrawal     \n\t\t});\n\n\t\tassert(LOCTokenContract.transferFrom(msg.sender, this, _reservationCostLOC));\n\n\t\temit LogCreateReservation(_reservationId, msg.sender, _recipientAddress, _startDateForWithdrawal, _reservationCostLOC);\n\t\treturn true;\n\t}\n\n\tfunction withdraw(bytes32[] _reservationIds) public validateCountCycle(_reservationIds) returns(bool success) {\n\t\trequire(_reservationIds.length > 0);\n\t\tuint256 withdrawAmount;\n\n\t\tfor (uint i = 0 ; i < _reservationIds.length ; i++) {\n\t\t\tbytes32 reservationId = _reservationIds[i];\n\t\t\tReservationStruct currentReservation = reservations[reservationId];\n\n\t\t\tvalidateWithdrawOrThrow(reservationId);\n\t\t\t\n\t\t\twithdrawAmount = withdrawAmount.add(currentReservation.reservationCostLOC);\n\t\t\tcurrentReservation.reservationCostLOC = 0;\n\t\t}\n\t\tassert(LOCTokenContract.transfer(msg.sender, withdrawAmount));\n\t\temit LogWithdrawal(withdrawAmount, msg.sender);\n\t\treturn true;\n\t}\n}\t",
  "sourcePath": "/Users/martingrigorov/Work/Projects/LockChain/DApp/contracts/SimpleReservations/SimpleReservationMultipleWithdrawers.sol",
  "compiler": {
    "name": "solc",
    "version": "0.4.23+commit.124ca40d.Emscripten.clang"
  },
  "schemaVersion": "2.0.0",
  "updatedAt": "2018-07-04T12:49:38.246Z"
}